:1000000005308A00352D0000FF00030E8301A1009A
:100010000A08A0008A010408A2007708A300780853
:10002000A4007908A5007A08A600831383128B1D0B
:100030001B280B182C28220884002308F70024080A
:10004000F8002508F9002608FA0020088A00210E89
:100050008300FF0E7F0E09008A110A1237280A104A
:100060008A100A11820728340C34013406340B102C
:10007000FF3083168600831206083039D500270822
:100080005502031954280030551A0130D6000030AB
:10009000A71A01305602031D50280130A802522829
:1000A0000130A8075508A7000B108A110A121B2857
:1000B0000C296533BD12EC3A201020000A28EF39D4
:1000C000BD12EC3A2000D02BCD1E253675004C30E9
:1000D00084008313000803197B280130F800F7011E
:1000E000F70B7028F80B6F284A30F700F70B7628CB
:1000F0007928800B6D280800530EF039F7000F3077
:1001000008057704880000000814862808100800F5
:100110000808F700080E0F39F800080083160810C9
:1001200088100811831288100F3083160805F038E4
:100130008800831208150000081400008820780841
:10014000D300081000000814000088207808D200AE
:1001500008100F308316080588008312530EF7002D
:10016000F030F70577085204F8007808D200D21B67
:100170009428501C881050188814000008110000A2
:100180000810510ED2000F30D2055208D3007C2047
:1001900051080F39D200D3007C2008000F3083169D
:1001A00008058800081088100811831288100811AB
:1001B00008100F30CC0067200130C0004008033C1D
:1001C000031CEA280330D3007C200530CC006720D4
:1001D000C00ADE280230D3007C200530CC00672026
:1001E000C0014008033C031CFE2840082F20C1002A
:1001F000D0014108D1008E20C00AF1288A110A12CC
:100200004C2D8E30F7004508F8004408F900FA013B
:10021000F808031D15297908F800F9010830F702DC
:10022000F808031D1529F7011D290310F81B1C29C7
:10023000F90DF80DF7031529F81308004408031900
:100240008E29CC00480803198E29CC0703182F29C2
:100250007F30CC02031C8E2903198E29332981306B
:10026000CC0703188E294C08F700F801F901FA01B0
:100270004508D000D0174608CF004708CE001830F8
:10028000CC00CD014E1C5C294B08FA07031C4E29FB
:10029000F90A031D4E29F80A0319CD174A08F90770
:1002A000031C5529F80A0319CD174908C600C617BB
:1002B0004608F8070318CD17CD0DF80CF90CFA0C09
:1002C000D00CCF0CCE0C0310CC0B41290130F7071A
:1002D00003188E29F81B7329D00DFA0DF90DF80DAE
:1002E000F70303198E29D01F8429FA0A031D8429D4
:1002F000F90A031D8429F80A031D8429F80CF90C56
:10030000FA0CF70A03198E294508CD004908CD06D5
:10031000CD1F8C29F8179229F8139229F701F801BB
:10032000F901FA01080044080319582AD0004808C6
:100330000319582AD002031CA2297F30D0070318C2
:10034000582AA8298130D002031C582A0319582A98
:100350005008F700F801F901FA01CF014508CE0075
:10036000CE174608CD004708CC001930D0004B0806
:10037000CC020318CB290130CD020318CB29CE02C1
:100380000318CB29CF020318CB29CF0ACE0ACD0AF6
:100390004B08CC07FD294A08CD020318E629013095
:1003A000CE020318E629CF020318E629CF0ACE0AA7
:1003B0004A08CD074B08CC07031CFD29CD0A031DB5
:1003C000FD29CE0A031DFD29CF0AFD2949088038E1
:1003D000CE020318FC290130CF020318FC29CF0AF2
:1003E00049088038CE074A08CD07031CDA29CE0A0F
:1003F000031DDA29CF0ADA297A14D00B002A0B2A36
:100400000310CC0DCD0DCE0DCF0D0310FA0DF90D4F
:10041000F80DD10DB729511C132A0310F80CF90C53
:10042000FA0CD10C162AF7030319582AD11B3F2ABC
:100430000310CC0DCD0DCE0DCF0D4B08CC02031803
:100440002B2A0130CD0203182B2ACE0203182B2AA7
:10045000CF02031C4E2A4A08CD020318362A013067
:10046000CE020318362ACF02031C4E2A49088038D0
:10047000CE0203183F2A0130CF02031C4E2AFA0A8B
:10048000031D4E2AF90A031D4E2AF80A031D4E2A9F
:10049000F70A0319582AF80CF90CFA0C4508D00091
:1004A0004908D006D01F562AF8175C2AF8135C2A90
:1004B000F701F801F901FA01080080308318C90634
:1004C000CE01CF014508CD004908CD0644080319E7
:1004D0004D2BCC00F70048080319562BCC0203190A
:1004E000F22A031CB02A4908D200D2174A08D100C8
:1004F0004B08D000CF010310D20CD10CD00CCF0C84
:10050000CC0B7A2ACD1F872A4E146A2B4E104C1022
:100510004E164730840083137F2B4E12CD1B9A2A30
:100520004C1CA52AD20CD10CD00CCF0CF70A031905
:10053000652BA52AD21BA82A0310CF0DD00DD10DF3
:10054000D20DF7030319652B9A2A4E17122B4E135F
:100550004508CD00CD1FAE2AD2175E2BD2135E2BDD
:100560004808CC00F7004408CC024508D200D21756
:100570004608D1004708D000CF010310D20CD10C9F
:10058000D00CCF0CCC0BBC2ACD1FC92ACE146A2BA1
:10059000CE104C10CE164B30840083137F2BCE121E
:1005A000CD1BDC2A4C1CE72AD20CD10CD00CCF0C72
:1005B000F70A0319652BE72AD21BEA2A0310CF0D8D
:1005C000D00DD10DD20DF7030319652BDC2ACE1700
:1005D000122BCE134908CD00CD1FF02AD2175E2B67
:1005E000D2135E2B4908D200D2174A08D1004B081B
:1005F000D000CD1FFF2AD2134E156A2B4E11CF010A
:100600004C104730840083137F2BCD1B282B4508CB
:10061000CD004C1C122BD20CD10CD00CCF0CF70AF5
:100620000319652BCF1F232BD00A031D232BD10ABF
:10063000031D232BD20A031D232BD20CD10CD00C6B
:10064000F70A0319652B4E1BA72ACE1BE92A472B55
:100650008030D206D21F302B6A2B4908CD003D2BAB
:100660004508CD00D208031D3D2BD108031D3D2BAD
:10067000D008031D3D2BF7015E2BD21B472B031027
:10068000CF0DD00DD10DD20DF70B3D2B652BCD1F0E
:100690004B2BD2175E2BD2135E2B4808F70049086C
:1006A000D2004A08D1004B08D0005E2B4408F70066
:1006B0004508D2004608D1004708D0005208F8008B
:1006C0005108F9005008FA009D2BF701F801F901D3
:1006D000FA019D2BCF01D009D109D209CF09CF0A48
:1006E000031D782BD00A031D782BD10A0319D20AD7
:1006F0004E18862ACE18C82A4E19FE2A2D2B00081D
:10070000D007031C892BD10A031D892BD20A031998
:100710004C1484030008D107031C912BD20A03193F
:100720004C1484030008801F803AD20703184C142D
:100730004E1A8D2ACE1ACF2A052B08008E30F700CC
:100740004408F7024508F9004608F800F917F708C9
:100750000319B52B0310F908031DB12BF808031971
:10076000B52BF90CF80CF70BAA2BC51FBC2BF809FD
:10077000F909F80A0319F90A0800C501C401A81B00
:10078000CC2B2808033C0318CC2B0130C4070318DA
:10079000C50A0430A802BF2B2808803A7C3C031C01
:1007A000DA2B0130C4020030031C0130C5020430D2
:1007B000A807CC2B4408F8004508F9008A110A1252
:1007C000612EF801F901F701FA014508031DEB2B31
:1007D00044080319052C1030C6000310C20DC30DC8
:1007E000F70DFA0D45087A02031DF82B440877022D
:1007F000031C012C4408F702031CFA034508FA0203
:100800000314F80DF90DC60BED2B8A110A12B02E48
:100810004108C7004008C6004308C9004208C80094
:100820001030CA00F701FA01C70CC60C031C1E2CBD
:100830004808F7070318FA0A4908FA07FA0CF70CF0
:10084000F90CF80CCA0B142C7808C4007908C50000
:10085000C51B342C4508033C0318342CFF30F8002A
:100860000330F9003F2C3F2CC51F3B2C0030F80013
:10087000F9003F2C3F2C4408F8004508F900080017
:100880004D0B432C462C4030CE00472CCE0101307E
:100890004C02CE074E088038CF00D0014F08D1005F
:1008A0008E2008004B08073A0319602C0B3A0319F5
:1008B000652C063A03196D2C023A0319732C782C17
:1008C0000130CC00CD0040247D2CD0010130D1007E
:1008D0008E200230CC0067207D2C0130CC0002300D
:1008E000CD0040247D2CD0011030D1008E207D2CF5
:1008F0000130D0004B08D1008E2008000B08C30047
:100900008B13831603178C170C14000000000318B8
:10091000B02C83120C087F390313C40003170D0891
:100920000313C50003170F080313C6004408CB00C8
:100930005224450803178D000313460803178F0040
:1009400083168C170C140000000083120313C20BD3
:10095000AA2CAD2C83160317B02CCF2C83160317AB
:1009600083120C0D0E0D7F390313C40003170D08FD
:100970000313C50003170F080313C6004408CB0078
:100980005224450803178D000313460803178F00F0
:100990008D0A03198F0A03100313C20B812CC31B8A
:1009A0008B170800CA010408C9004A10831B4A14A7
:1009B000430EF038C500C507E23EC600323EC8000F
:1009C00043080F39C607C607C807E93EC700C7076F
:1009D000C707420E0F39C707C807C70DC80DC8099A
:1009E000C80D42080F39C807C50D0730C4000A30CA
:1009F000C807C703031CF82CC707C603031CFC2C3D
:100A0000C607C503031C002DC507C403031C042D22
:100A10004430840083130730490549138407483064
:100A20000402031949170008F700031D1F2D491B75
:100A30001F2D491A312DC9191F2D2030222DC915FE
:100A400049123030F707C3010408C2004310831B6A
:100A500043147708CB0052244208840083134318C0
:100A60008317840A491F0F2D0800A801FF30A90031
:100A700083161F149F141F159F1107309C008313AA
:100A80001F3083050A308312AE005030AF00B10131
:100A9000B001B301B201CE280A30CC00672000308B
:100AA000831687008312A900A90083168701831289
:100AB00087012911290883168700831207110C303A
:100AC00097000030F80006389200FF30831692003D
:100AD0001F109F101F159F111F1383121F139F17A5
:100AE00083169F1783121F148B15C0308B040B10B5
:100AF0000030F8001F08C73978049F000230F70063
:100B0000F70B802D832D00001F151F19852D8316CF
:100B10001E088312AA001E08AB002B08C5002A0875
:100B2000C40001217A08C3007908C2007808C10016
:100B30007708C0007A08C7007908C6007808C500A1
:100B40007708C400CB01CA017A30C9008630C800DA
:100B50001E217A08C3007908C2007808C10077080E
:100B6000C0007A08C7007908C6007808C500770871
:100B7000C400CB01C030CA007F30C9008830C80033
:100B800093217A08C3007908C2007808C100770869
:100B9000C00083107A08C7007908C6007808C5002D
:100BA0007708C400CB01CA012030C9008330C800D7
:100BB0005D227A08C7007908C6007808C500770862
:100BC000C4009E237908B5007808B4000830F80006
:100BD0001F08C73978049F000230F700F70BEE2D8D
:100BE000F12D00001F151F19F32D83161E08831207
:100BF000AC001E08AD002D08C5002C08C400012162
:100C00007A08C3007908C2007808C1007708C000DC
:100C10007A08C7007908C6007808C5007708C400BC
:100C2000CB01C030CA007F30C9008830C800932192
:100C30007A08C3007908C2007808C1007708C000AC
:100C4000C5012F08C40001214308C7004208C6009F
:100C50004108C5004008C4007A08CB007908CA00E2
:100C60007808C9007708C8001E217A08C3007908EF
:100C7000C2007808C1007708C000C5012E08C40072
:100C8000012183107A08C7007908C6007808C500DA
:100C90007708C4004308CB004208CA004108C900D5
:100CA0004008C8005D227A08C7007908C6007808A5
:100CB000C5007708C4009E237908B7007808B600FD
:100CC000BD2B7908B9007808B80038083904031931
:100CD0006F2E3808B00739080318390FB1073108EB
:100CE000C5003008C40001217A08C7007908C60091
:100CF0007808C5007708C400CB01CA013430C900A8
:100D00008730C80093217A08BD007908BC007808B4
:100D1000BB007708BA003D08C7003C08C6003B0886
:100D2000C5003A08C400CB01CA013430C90087307D
:100D3000C8001E217A08C7007908C6007808C500D7
:100D40007708C4009E237908C1007808C00079089C
:100D5000C3007808C2000130C5006830C400E12B30
:100D60007708BE007A08BF003F083502031CEF2E4B
:100D7000031DBE2E3E083402031CEF2E3E08340233
:100D8000B2003508B3003F08031C3F0FB302370819
:100D9000C1003608C0003308C3003208C20008246E
:100DA0007908C1007808C000C10CC00CC10CC00C8F
:100DB000C10C40089500C10C410C3039F7001708F0
:100DC000CF397704970029102908831687008312EA
:100DD0000714A91029088316870083128710350885
:100DE0003F02031C2A2F031DF92E3E08340203186C
:100DF0002A2F34083E02B2003F08B3003508031C16
:100E0000350FB3023708C1003608C0003308C300ED
:100E10003208C20008247908C1007808C000C10C5B
:100E2000C00CC10CC00CC10C40089500C10C410C99
:100E30003039F7001708CF397704970029102908AF
:100E40008316870083120710A910290883168700CC
:100E500083128714583003178D0000308F00031061
:100E600005300313C2007E24103084003508C3000F
:100E70003408C200D2242030CB0052242030CB00D2
:100E800052242030CB0052244B30CB0052247030FF
:100E9000CB0052243D30CB00522410308400370860
:100EA000C3003608C200D2245E3003178D00003024
:100EB0008F00031005300313C2007E24103084001D
:100EC0003108C3003008C200D2242030CB005224A5
:100ED0003708C1003608C0003308C3003208C2001A
:100EE00008247908C1007808C000633003178D001A
:100EF00000308F00031004300313C2007E24103032
:100F000084004108C3004008C200D2240A30CC004B
:060F10006720782D63004C
:02400E00393F38
:00000001FF
;PIC16F877A
;CRC=C0FF  CREATED="07-θών-21 16:19"
